{
  "contractName": "PublicKeyRequestWithMessage",
  "abi": [
    {
      "inputs": [],
      "stateMutability": "nonpayable",
      "type": "constructor"
    },
    {
      "anonymous": false,
      "inputs": [
        {
          "indexed": true,
          "internalType": "address",
          "name": "from",
          "type": "address"
        },
        {
          "indexed": true,
          "internalType": "address",
          "name": "to",
          "type": "address"
        },
        {
          "indexed": false,
          "internalType": "string",
          "name": "message",
          "type": "string"
        }
      ],
      "name": "PublicKeyRequested",
      "type": "event"
    },
    {
      "anonymous": false,
      "inputs": [
        {
          "indexed": true,
          "internalType": "address",
          "name": "from",
          "type": "address"
        },
        {
          "indexed": false,
          "internalType": "string",
          "name": "publicKey",
          "type": "string"
        }
      ],
      "name": "PublicKeySubmitted",
      "type": "event"
    },
    {
      "inputs": [],
      "name": "owner",
      "outputs": [
        {
          "internalType": "address",
          "name": "",
          "type": "address"
        }
      ],
      "stateMutability": "view",
      "type": "function"
    },
    {
      "inputs": [
        {
          "internalType": "address",
          "name": "",
          "type": "address"
        }
      ],
      "name": "publicKeys",
      "outputs": [
        {
          "internalType": "string",
          "name": "",
          "type": "string"
        }
      ],
      "stateMutability": "view",
      "type": "function"
    },
    {
      "inputs": [
        {
          "internalType": "address",
          "name": "userB",
          "type": "address"
        },
        {
          "internalType": "string",
          "name": "message",
          "type": "string"
        }
      ],
      "name": "requestPublicKey",
      "outputs": [],
      "stateMutability": "nonpayable",
      "type": "function"
    },
    {
      "inputs": [
        {
          "internalType": "string",
          "name": "publicKey",
          "type": "string"
        }
      ],
      "name": "submitPublicKey",
      "outputs": [],
      "stateMutability": "nonpayable",
      "type": "function"
    },
    {
      "inputs": [
        {
          "internalType": "address",
          "name": "user",
          "type": "address"
        }
      ],
      "name": "getPublicKey",
      "outputs": [
        {
          "internalType": "string",
          "name": "",
          "type": "string"
        }
      ],
      "stateMutability": "view",
      "type": "function"
    }
  ],
  "bytecode": "0x608060405234801561000f575f80fd5b50335f806101000a81548173ffffffffffffffffffffffffffffffffffffffff021916908373ffffffffffffffffffffffffffffffffffffffff160217905550610c4d8061005c5f395ff3fe608060405234801561000f575f80fd5b5060043610610055575f3560e01c806351496f7a14610059578063857cdbb8146100755780638da5cb5b146100a5578063a3d6f9a9146100c3578063bad80b7d146100f3575b5f80fd5b610073600480360381019061006e91906105ff565b61010f565b005b61008f600480360381019061008a91906106a0565b6101ee565b60405161009c9190610745565b60405180910390f35b6100ad6102bb565b6040516100ba9190610774565b60405180910390f35b6100dd60048036038101906100d891906106a0565b6102de565b6040516100ea9190610745565b60405180910390f35b61010d6004803603810190610108919061078d565b610379565b005b5f815111610152576040517f08c379a000000000000000000000000000000000000000000000000000000000815260040161014990610831565b60405180910390fd5b8060015f3373ffffffffffffffffffffffffffffffffffffffff1673ffffffffffffffffffffffffffffffffffffffff1681526020019081526020015f20908161019c9190610a52565b503373ffffffffffffffffffffffffffffffffffffffff167fcf577641090bd95e7025a3b034b41d56c7dc60a97841b5f914dd37dba8801afc826040516101e39190610745565b60405180910390a250565b606060015f8373ffffffffffffffffffffffffffffffffffffffff1673ffffffffffffffffffffffffffffffffffffffff1681526020019081526020015f2080546102389061087c565b80601f01602080910402602001604051908101604052809291908181526020018280546102649061087c565b80156102af5780601f10610286576101008083540402835291602001916102af565b820191905f5260205f20905b81548152906001019060200180831161029257829003601f168201915b50505050509050919050565b5f8054906101000a900473ffffffffffffffffffffffffffffffffffffffff1681565b6001602052805f5260405f205f9150905080546102fa9061087c565b80601f01602080910402602001604051908101604052809291908181526020018280546103269061087c565b80156103715780601f1061034857610100808354040283529160200191610371565b820191905f5260205f20905b81548152906001019060200180831161035457829003601f168201915b505050505081565b5f8054906101000a900473ffffffffffffffffffffffffffffffffffffffff1673ffffffffffffffffffffffffffffffffffffffff163373ffffffffffffffffffffffffffffffffffffffff1614610406576040517f08c379a00000000000000000000000000000000000000000000000000000000081526004016103fd90610b91565b60405180910390fd5b5f815111610449576040517f08c379a000000000000000000000000000000000000000000000000000000000815260040161044090610bf9565b60405180910390fd5b8173ffffffffffffffffffffffffffffffffffffffff163373ffffffffffffffffffffffffffffffffffffffff167f734dbcf1537db714ca66421263959c81603003e09857ef44c7995572fbcf62b8836040516104a69190610745565b60405180910390a35050565b5f604051905090565b5f80fd5b5f80fd5b5f80fd5b5f80fd5b5f601f19601f8301169050919050565b7f4e487b71000000000000000000000000000000000000000000000000000000005f52604160045260245ffd5b610511826104cb565b810181811067ffffffffffffffff821117156105305761052f6104db565b5b80604052505050565b5f6105426104b2565b905061054e8282610508565b919050565b5f67ffffffffffffffff82111561056d5761056c6104db565b5b610576826104cb565b9050602081019050919050565b828183375f83830152505050565b5f6105a361059e84610553565b610539565b9050828152602081018484840111156105bf576105be6104c7565b5b6105ca848285610583565b509392505050565b5f82601f8301126105e6576105e56104c3565b5b81356105f6848260208601610591565b91505092915050565b5f60208284031215610614576106136104bb565b5b5f82013567ffffffffffffffff811115610631576106306104bf565b5b61063d848285016105d2565b91505092915050565b5f73ffffffffffffffffffffffffffffffffffffffff82169050919050565b5f61066f82610646565b9050919050565b61067f81610665565b8114610689575f80fd5b50565b5f8135905061069a81610676565b92915050565b5f602082840312156106b5576106b46104bb565b5b5f6106c28482850161068c565b91505092915050565b5f81519050919050565b5f82825260208201905092915050565b5f5b838110156107025780820151818401526020810190506106e7565b5f8484015250505050565b5f610717826106cb565b61072181856106d5565b93506107318185602086016106e5565b61073a816104cb565b840191505092915050565b5f6020820190508181035f83015261075d818461070d565b905092915050565b61076e81610665565b82525050565b5f6020820190506107875f830184610765565b92915050565b5f80604083850312156107a3576107a26104bb565b5b5f6107b08582860161068c565b925050602083013567ffffffffffffffff8111156107d1576107d06104bf565b5b6107dd858286016105d2565b9150509250929050565b7f5075626c6963206b65792063616e6e6f7420626520656d7074790000000000005f82015250565b5f61081b601a836106d5565b9150610826826107e7565b602082019050919050565b5f6020820190508181035f8301526108488161080f565b9050919050565b7f4e487b71000000000000000000000000000000000000000000000000000000005f52602260045260245ffd5b5f600282049050600182168061089357607f821691505b6020821081036108a6576108a561084f565b5b50919050565b5f819050815f5260205f209050919050565b5f6020601f8301049050919050565b5f82821b905092915050565b5f600883026109087fffffffffffffffffffffffffffffffffffffffffffffffffffffffffffffffff826108cd565b61091286836108cd565b95508019841693508086168417925050509392505050565b5f819050919050565b5f819050919050565b5f61095661095161094c8461092a565b610933565b61092a565b9050919050565b5f819050919050565b61096f8361093c565b61098361097b8261095d565b8484546108d9565b825550505050565b5f90565b61099761098b565b6109a2818484610966565b505050565b5b818110156109c5576109ba5f8261098f565b6001810190506109a8565b5050565b601f821115610a0a576109db816108ac565b6109e4846108be565b810160208510156109f3578190505b610a076109ff856108be565b8301826109a7565b50505b505050565b5f82821c905092915050565b5f610a2a5f1984600802610a0f565b1980831691505092915050565b5f610a428383610a1b565b9150826002028217905092915050565b610a5b826106cb565b67ffffffffffffffff811115610a7457610a736104db565b5b610a7e825461087c565b610a898282856109c9565b5f60209050601f831160018114610aba575f8415610aa8578287015190505b610ab28582610a37565b865550610b19565b601f198416610ac8866108ac565b5f5b82811015610aef57848901518255600182019150602085019450602081019050610aca565b86831015610b0c5784890151610b08601f891682610a1b565b8355505b6001600288020188555050505b505050505050565b7f4f6e6c79206f776e65722063616e2072657175657374207075626c6963206b655f8201527f7973000000000000000000000000000000000000000000000000000000000000602082015250565b5f610b7b6022836106d5565b9150610b8682610b21565b604082019050919050565b5f6020820190508181035f830152610ba881610b6f565b9050919050565b7f4d6573736167652063616e6e6f7420626520656d7074790000000000000000005f82015250565b5f610be36017836106d5565b9150610bee82610baf565b602082019050919050565b5f6020820190508181035f830152610c1081610bd7565b905091905056fea264697066735822122078cb25e8d8709bea7d2898af0ca19c9bd7ac923761842f96b9ce8d6429fbe6fa64736f6c63430008150033",
  "immutableReferences": {},
  "source": "// SPDX-License-Identifier: MIT\npragma solidity ^0.8.0;\n\ncontract PublicKeyRequestWithMessage {\n    // Define the contract owner (UserA)\n    address public owner;\n    \n    // Mapping to store public keys of different users\n    mapping(address => string) public publicKeys;\n\n    // Event to request the public key with a message\n    event PublicKeyRequested(address indexed from, address indexed to, string message);\n\n    // Event to store the response (UserB's public key)\n    event PublicKeySubmitted(address indexed from, string publicKey);\n\n    // Modifier to ensure only the contract owner can request public keys\n    modifier onlyOwner() {\n        require(msg.sender == owner, \"Only owner can request public keys\");\n        _;\n    }\n\n    // Constructor to set the contract owner (UserA)\n    constructor() {\n        owner = msg.sender;\n    }\n\n    // Function to request the public key of UserB with a custom message\n    function requestPublicKey(address userB, string memory message) public onlyOwner {\n        // message = \"Please send your public key for secure communication.\";\n        require(bytes(message).length > 0, \"Message cannot be empty\");\n        emit PublicKeyRequested(msg.sender, userB, message);\n    }\n\n    // Function for UserB to respond with their public key\n    function submitPublicKey(string memory publicKey) public {\n        require(bytes(publicKey).length > 0, \"Public key cannot be empty\");\n\n        // Store the public key\n        publicKeys[msg.sender] = publicKey;\n\n        emit PublicKeySubmitted(msg.sender, publicKey);\n    }\n\n    // Function to retrieve the public key of a user\n    function getPublicKey(address user) public view returns (string memory) {\n        return publicKeys[user];\n    }\n}\n",
  "sourcePath": "/Users/panosdaveas/Documents/DiWi-DApp/diwi-contracts/contracts/NewContract.sol",
  "compiler": {
    "name": "solc",
    "version": "0.8.21+commit.d9974bed.Emscripten.clang"
  },
  "schemaVersion": "3.4.16",
  "updatedAt": "2024-10-01T22:13:45.647Z",
  "devdoc": {
    "kind": "dev",
    "methods": {},
    "version": 1
  },
  "userdoc": {
    "kind": "user",
    "methods": {},
    "version": 1
  }
}